{
  "contractName": "SimpleToken",
  "abi": [
    {
      "inputs": [],
      "stateMutability": "nonpayable",
      "type": "constructor"
    },
    {
      "inputs": [
        {
          "internalType": "address",
          "name": "",
          "type": "address"
        }
      ],
      "name": "balances",
      "outputs": [
        {
          "internalType": "uint256",
          "name": "",
          "type": "uint256"
        }
      ],
      "stateMutability": "view",
      "type": "function",
      "constant": true
    },
    {
      "inputs": [],
      "name": "owner",
      "outputs": [
        {
          "internalType": "address",
          "name": "",
          "type": "address"
        }
      ],
      "stateMutability": "view",
      "type": "function",
      "constant": true
    },
    {
      "inputs": [],
      "name": "token_supply",
      "outputs": [
        {
          "internalType": "uint256",
          "name": "",
          "type": "uint256"
        }
      ],
      "stateMutability": "view",
      "type": "function",
      "constant": true
    },
    {
      "inputs": [
        {
          "internalType": "address",
          "name": "receiver",
          "type": "address"
        },
        {
          "internalType": "uint256",
          "name": "amount",
          "type": "uint256"
        }
      ],
      "name": "transfer",
      "outputs": [],
      "stateMutability": "nonpayable",
      "type": "function"
    }
  ],
  "bytecode": "0x608060405234801561001057600080fd5b50336000806101000a81548173ffffffffffffffffffffffffffffffffffffffff021916908373ffffffffffffffffffffffffffffffffffffffff16021790555064e8d4a51000600160008060009054906101000a900473ffffffffffffffffffffffffffffffffffffffff1673ffffffffffffffffffffffffffffffffffffffff1673ffffffffffffffffffffffffffffffffffffffff16815260200190815260200160002081905550610516806100ca6000396000f3fe608060405234801561001057600080fd5b506004361061004c5760003560e01c806327e235e3146100515780638da5cb5b14610081578063a9059cbb1461009f578063ba9131ca146100bb575b600080fd5b61006b6004803603810190610066919061027a565b6100d9565b6040516100789190610363565b60405180910390f35b6100896100f1565b6040516100969190610328565b60405180910390f35b6100b960048036038101906100b491906102a7565b610115565b005b6100c3610247565b6040516100d09190610363565b60405180910390f35b60016020528060005260406000206000915090505481565b60008054906101000a900473ffffffffffffffffffffffffffffffffffffffff1681565b600160003373ffffffffffffffffffffffffffffffffffffffff1673ffffffffffffffffffffffffffffffffffffffff16815260200190815260200160002054811115610197576040517f08c379a000000000000000000000000000000000000000000000000000000000815260040161018e90610343565b60405180910390fd5b80600160003373ffffffffffffffffffffffffffffffffffffffff1673ffffffffffffffffffffffffffffffffffffffff16815260200190815260200160002060008282546101e691906103e5565b9250508190555080600160008473ffffffffffffffffffffffffffffffffffffffff1673ffffffffffffffffffffffffffffffffffffffff168152602001908152602001600020600082825461023c919061038f565b925050819055505050565b64e8d4a5100081565b60008135905061025f816104b2565b92915050565b600081359050610274816104c9565b92915050565b6000602082840312156102905761028f610484565b5b600061029e84828501610250565b91505092915050565b600080604083850312156102be576102bd610484565b5b60006102cc85828601610250565b92505060206102dd85828601610265565b9150509250929050565b6102f081610419565b82525050565b600061030360158361037e565b915061030e82610489565b602082019050919050565b6103228161044b565b82525050565b600060208201905061033d60008301846102e7565b92915050565b6000602082019050818103600083015261035c816102f6565b9050919050565b60006020820190506103786000830184610319565b92915050565b600082825260208201905092915050565b600061039a8261044b565b91506103a58361044b565b9250827fffffffffffffffffffffffffffffffffffffffffffffffffffffffffffffffff038211156103da576103d9610455565b5b828201905092915050565b60006103f08261044b565b91506103fb8361044b565b92508282101561040e5761040d610455565b5b828203905092915050565b60006104248261042b565b9050919050565b600073ffffffffffffffffffffffffffffffffffffffff82169050919050565b6000819050919050565b7f4e487b7100000000000000000000000000000000000000000000000000000000600052601160045260246000fd5b600080fd5b7f496e73756666696369656e742062616c616e63652e0000000000000000000000600082015250565b6104bb81610419565b81146104c657600080fd5b50565b6104d28161044b565b81146104dd57600080fd5b5056fea2646970667358221220075c446ce4ad122ad3029867dc6b87ce5003afad2904a265ec58986ada0f959664736f6c63430008070033",
  "immutableReferences": {},
  "source": "// SPDX-License-Identifier: GPL-3.0\npragma solidity ^0.8.2;\n\n// This example was taken from the code examples on:\n// https://ethereum.org/en/\n\n/**\nNOTE: THIS WILL NOT BE AUTOMATICALLY COMPILED.\nIf you want it to compile, either import it into contract.sol or copy and paste the contract directly into there!\n**/\n\ncontract SimpleToken {\n    // An address is comparable to an email address - it's used to identify an account on Ethereum.\n    address public owner;\n    uint256 public constant token_supply = 1000000000000;\n\n    // A mapping is essentially a hash table data structure.\n    // This mapping assigns an unsigned integer (the token balance) to an address (the token holder).\n    mapping (address => uint) public balances;\n\n\n  // When 'SimpleToken' contract is deployed:\n  // 1. set the deploying address as the owner of the contract\n  // 2. set the token balance of the owner to the total token supply\n    constructor() {\n        owner = msg.sender;\n        balances[owner] = token_supply;\n    }\n\n    // Sends an amount of tokens from any caller to any address.\n    function transfer(address receiver, uint amount) public {\n        // The sender must have enough tokens to send\n        require(amount <= balances[msg.sender], \"Insufficient balance.\");\n\n        // Adjusts token balances of the two addresses\n        balances[msg.sender] -= amount;\n        balances[receiver] += amount;\n    }\n}",
  "sourcePath": "/Users/joenyzio/Documents/GitHub/joenyzio/celo-truffle/contracts/SimpleToken.sol",
  "compiler": {
    "name": "solc",
    "version": "0.8.7+commit.e28d00a7.Emscripten.clang"
  },
  "schemaVersion": "3.4.5",
  "updatedAt": "2022-06-13T01:57:35.432Z",
  "networkType": "ethereum",
  "devdoc": {
    "kind": "dev",
    "methods": {},
    "version": 1
  },
  "userdoc": {
    "kind": "user",
    "methods": {},
    "notice": "NOTE: THIS WILL NOT BE AUTOMATICALLY COMPILED. If you want it to compile, either import it into contract.sol or copy and paste the contract directly into there!*",
    "version": 1
  }
}