{
  "contractName": "SimpleSupplyChain",
  "abi": [
    {
      "inputs": [],
      "stateMutability": "payable",
      "type": "constructor",
      "payable": true
    },
    {
      "anonymous": false,
      "inputs": [
        {
          "indexed": false,
          "internalType": "uint256",
          "name": "skuCount",
          "type": "uint256"
        }
      ],
      "name": "ForSale",
      "type": "event"
    },
    {
      "anonymous": false,
      "inputs": [
        {
          "indexed": false,
          "internalType": "uint256",
          "name": "sku",
          "type": "uint256"
        }
      ],
      "name": "Sold",
      "type": "event"
    },
    {
      "inputs": [
        {
          "internalType": "string",
          "name": "_name",
          "type": "string"
        },
        {
          "internalType": "uint256",
          "name": "_price",
          "type": "uint256"
        }
      ],
      "name": "addItem",
      "outputs": [],
      "stateMutability": "nonpayable",
      "type": "function"
    },
    {
      "inputs": [
        {
          "internalType": "uint256",
          "name": "sku",
          "type": "uint256"
        }
      ],
      "name": "buyItem",
      "outputs": [],
      "stateMutability": "payable",
      "type": "function",
      "payable": true
    },
    {
      "inputs": [
        {
          "internalType": "uint256",
          "name": "_sku",
          "type": "uint256"
        }
      ],
      "name": "fetchItem",
      "outputs": [
        {
          "internalType": "string",
          "name": "name",
          "type": "string"
        },
        {
          "internalType": "uint256",
          "name": "sku",
          "type": "uint256"
        },
        {
          "internalType": "uint256",
          "name": "price",
          "type": "uint256"
        },
        {
          "internalType": "string",
          "name": "stateIs",
          "type": "string"
        },
        {
          "internalType": "address",
          "name": "seller",
          "type": "address"
        },
        {
          "internalType": "address",
          "name": "buyer",
          "type": "address"
        }
      ],
      "stateMutability": "view",
      "type": "function",
      "constant": true
    }
  ],
  "bytecode": "0x6080604052336000806101000a81548173ffffffffffffffffffffffffffffffffffffffff021916908373ffffffffffffffffffffffffffffffffffffffff1602179055506000600181905550610c478061005b6000396000f3fe6080604052600436106100345760003560e01c806362d6bbdf14610039578063ad4b9cfb14610062578063e7fb74c7146100a4575b600080fd5b34801561004557600080fd5b50610060600480360381019061005b9190610806565b6100c0565b005b34801561006e57600080fd5b5061008960048036038101906100849190610862565b6102df565b60405161009b969594939291906108e6565b60405180910390f35b6100be60048036038101906100b99190610862565b6104f6565b005b60008054906101000a900473ffffffffffffffffffffffffffffffffffffffff1673ffffffffffffffffffffffffffffffffffffffff163373ffffffffffffffffffffffffffffffffffffffff161461011857600080fd5b6001805461012691906109e2565b6001819055507fa96ae0fc3224ebd79eebfe54bd130cc9cb94416cddd1f2386115e00b7253246860015460405161015d9190610955565b60405180910390a16040518060c0016040528083815260200160015481526020018281526020016000600181111561019857610197610b48565b5b81526020013373ffffffffffffffffffffffffffffffffffffffff168152602001600073ffffffffffffffffffffffffffffffffffffffff1681525060026000600154815260200190815260200160002060008201518160000190805190602001906102059291906106de565b50602082015181600101556040820151816002015560608201518160030160006101000a81548160ff0219169083600181111561024557610244610b48565b5b021790555060808201518160030160016101000a81548173ffffffffffffffffffffffffffffffffffffffff021916908373ffffffffffffffffffffffffffffffffffffffff16021790555060a08201518160040160006101000a81548173ffffffffffffffffffffffffffffffffffffffff021916908373ffffffffffffffffffffffffffffffffffffffff1602179055509050505050565b60606000806060600080600060026000898152602001908152602001600020600001805461030c90610ab6565b80601f016020809104026020016040519081016040528092919081815260200182805461033890610ab6565b80156103855780601f1061035a57610100808354040283529160200191610385565b820191906000526020600020905b81548152906001019060200180831161036857829003601f168201915b5050505050965060026000898152602001908152602001600020600101549550600260008981526020019081526020016000206002015494506002600089815260200190815260200160002060030160009054906101000a900460ff1660018111156103f4576103f3610b48565b5b90506000811415610438576040518060400160405280600881526020017f466f722053616c6500000000000000000000000000000000000000000000000081525093505b600181141561047a576040518060400160405280600481526020017f536f6c640000000000000000000000000000000000000000000000000000000081525093505b6002600089815260200190815260200160002060030160019054906101000a900473ffffffffffffffffffffffffffffffffffffffff1692506002600089815260200190815260200160002060040160009054906101000a900473ffffffffffffffffffffffffffffffffffffffff1691505091939550919395565b806000600181111561050b5761050a610b48565b5b6002600083815260200190815260200160002060030160009054906101000a900460ff16600181111561054157610540610b48565b5b1461054b57600080fd5b60026000838152602001908152602001600020600201548034101561056f57600080fd5b6000339050600060026000868152602001908152602001600020600201549050816002600087815260200190815260200160002060040160006101000a81548173ffffffffffffffffffffffffffffffffffffffff021916908373ffffffffffffffffffffffffffffffffffffffff16021790555060016002600087815260200190815260200160002060030160006101000a81548160ff0219169083600181111561061e5761061d610b48565b5b02179055506002600086815260200190815260200160002060030160019054906101000a900473ffffffffffffffffffffffffffffffffffffffff1673ffffffffffffffffffffffffffffffffffffffff166108fc829081150290604051600060405180830381858888f1935050505015801561069f573d6000803e3d6000fd5b507f92f64ca637d023f354075a4be751b169c1a8a9ccb6d33cdd0cb3520543995727856040516106cf9190610955565b60405180910390a15050505050565b8280546106ea90610ab6565b90600052602060002090601f01602090048101928261070c5760008555610753565b82601f1061072557805160ff1916838001178555610753565b82800160010185558215610753579182015b82811115610752578251825591602001919060010190610737565b5b5090506107609190610764565b5090565b5b8082111561077d576000816000905550600101610765565b5090565b600061079461078f84610995565b610970565b9050828152602081018484840111156107b0576107af610bda565b5b6107bb848285610a74565b509392505050565b600082601f8301126107d8576107d7610bd5565b5b81356107e8848260208601610781565b91505092915050565b60008135905061080081610bfa565b92915050565b6000806040838503121561081d5761081c610be4565b5b600083013567ffffffffffffffff81111561083b5761083a610bdf565b5b610847858286016107c3565b9250506020610858858286016107f1565b9150509250929050565b60006020828403121561087857610877610be4565b5b6000610886848285016107f1565b91505092915050565b61089881610a38565b82525050565b60006108a9826109c6565b6108b381856109d1565b93506108c3818560208601610a83565b6108cc81610be9565b840191505092915050565b6108e081610a6a565b82525050565b600060c0820190508181036000830152610900818961089e565b905061090f60208301886108d7565b61091c60408301876108d7565b818103606083015261092e818661089e565b905061093d608083018561088f565b61094a60a083018461088f565b979650505050505050565b600060208201905061096a60008301846108d7565b92915050565b600061097a61098b565b90506109868282610ae8565b919050565b6000604051905090565b600067ffffffffffffffff8211156109b0576109af610ba6565b5b6109b982610be9565b9050602081019050919050565b600081519050919050565b600082825260208201905092915050565b60006109ed82610a6a565b91506109f883610a6a565b9250827fffffffffffffffffffffffffffffffffffffffffffffffffffffffffffffffff03821115610a2d57610a2c610b19565b5b828201905092915050565b6000610a4382610a4a565b9050919050565b600073ffffffffffffffffffffffffffffffffffffffff82169050919050565b6000819050919050565b82818337600083830152505050565b60005b83811015610aa1578082015181840152602081019050610a86565b83811115610ab0576000848401525b50505050565b60006002820490506001821680610ace57607f821691505b60208210811415610ae257610ae1610b77565b5b50919050565b610af182610be9565b810181811067ffffffffffffffff82111715610b1057610b0f610ba6565b5b80604052505050565b7f4e487b7100000000000000000000000000000000000000000000000000000000600052601160045260246000fd5b7f4e487b7100000000000000000000000000000000000000000000000000000000600052602160045260246000fd5b7f4e487b7100000000000000000000000000000000000000000000000000000000600052602260045260246000fd5b7f4e487b7100000000000000000000000000000000000000000000000000000000600052604160045260246000fd5b600080fd5b600080fd5b600080fd5b600080fd5b6000601f19601f8301169050919050565b610c0381610a6a565b8114610c0e57600080fd5b5056fea264697066735822122003940b4c817a46ad2e20795fb6921813b23d124e53bfed69a7efb4625e7612de64736f6c63430008070033",
  "immutableReferences": {},
  "source": "// SPDX-License-Identifier: GPL-3.0\npragma solidity ^0.8.3;\n\n// Define a contract 'Lemonade Stand'\ncontract SimpleSupplyChain {\n\n    // Variable: Owner\n    address owner;\n\n    // Variable: SKU count\n    uint skuCount;\n\n    // Event: 'State' with value 'ForSale'\n    enum State { ForSale, Sold }\n\n    // Struct: Item. name, sku, price, state, seller, buyer\n    struct Item {\n        string  name;\n        uint  sku;\n        uint  price;\n        State  state;\n        address  seller;\n        address  buyer;\n    }\n\n    // Define a public mapping 'items' that maps the SKU (a number) to an Item.\n    mapping (uint => Item) items;\n\n    // Events\n    event ForSale(uint skuCount);\n    event Sold(uint sku);\n\n    // Modifier: Only Owner see if msg.sender == owner of the contract\n    modifier onlyOwner() {\n        require(msg.sender == owner);\n        _;\n    }\n\n    // Define a modifier that verifies the Caller\n    modifier verifyCaller (address _address) {\n        require(msg.sender == _address);\n        _;\n    }\n\n    // Define a modifier that checks if the paid amount is sufficient to cover the price\n    modifier paidEnough(uint _price) {\n        require(msg.value >= _price);\n        _;\n    }\n\n    // Define a modifier that checks if an item.state of a sku is ForSale\n    modifier forSale(uint _sku) {\n        require(items[_sku].state == State.ForSale);\n        _;\n    }\n\n    // Define a modifier that checks if an item.state of a sku is Sold\n    modifier sold(uint _sku) {\n        require(items[_sku].state == State.Sold);\n        _;\n    }\n\n    constructor() payable {\n        owner = msg.sender;\n        skuCount = 0;\n    }\n    \n    function addItem(string memory _name, uint _price) onlyOwner public {\n        // Increment sku\n        skuCount = skuCount + 1;\n\n        // Emit the appropriate event\n        emit ForSale(skuCount);\n\n        // Add the new item into inventory and mark it for sale\n        items[skuCount] = Item({name: _name, sku: skuCount, price: _price, state: State.ForSale, seller: msg.sender, buyer: address(0)});\n    }\n\n    function buyItem(uint sku) forSale(sku) paidEnough(items[sku].price) public payable{\n        address buyer = msg.sender;\n        uint price = items[sku].price;\n\n        // Update Buyer\n        items[sku].buyer = buyer;\n\n        // Update State\n        items[sku].state = State.Sold;\n\n        // Transfer money to seller\n        payable(items[sku].seller).transfer(price);\n\n        // Emit the appropriate event\n        emit Sold(sku);\n    }\n\n    function fetchItem(uint _sku) public view returns (\n        string memory name, \n        uint sku, \n        uint price, \n        string memory stateIs, \n        address seller, \n        address buyer) {\n        \n        uint state;\n        name = items[_sku].name;\n        sku = items[_sku].sku;\n        price = items[_sku].price;\n        state = uint(items[_sku].state);\n\n        if( state == 0) {\n            stateIs = \"For Sale\";\n        }\n\n        if( state == 1) {\n            stateIs = \"Sold\";\n        }\n\n        seller = items[_sku].seller;\n        buyer = items[_sku].buyer;\n    }\n\n}",
  "sourcePath": "/Users/joenyzio/Documents/GitHub/joenyzio/celo-truffle/contracts/SimpleSupplyChain.sol",
  "compiler": {
    "name": "solc",
    "version": "0.8.7+commit.e28d00a7.Emscripten.clang"
  },
  "schemaVersion": "3.4.5",
  "updatedAt": "2022-06-13T01:54:46.105Z",
  "networkType": "ethereum",
  "devdoc": {
    "kind": "dev",
    "methods": {},
    "version": 1
  },
  "userdoc": {
    "kind": "user",
    "methods": {},
    "version": 1
  }
}