{
  "contractName": "SimpleWallet",
  "abi": [
    {
      "inputs": [],
      "stateMutability": "nonpayable",
      "type": "constructor"
    },
    {
      "anonymous": false,
      "inputs": [
        {
          "indexed": false,
          "internalType": "uint256",
          "name": "amount",
          "type": "uint256"
        },
        {
          "indexed": true,
          "internalType": "address",
          "name": "sender",
          "type": "address"
        }
      ],
      "name": "LogDeposit",
      "type": "event"
    },
    {
      "anonymous": false,
      "inputs": [
        {
          "indexed": false,
          "internalType": "uint256",
          "name": "amount",
          "type": "uint256"
        },
        {
          "indexed": true,
          "internalType": "address",
          "name": "recipient",
          "type": "address"
        }
      ],
      "name": "LogWithdrawal",
      "type": "event"
    },
    {
      "inputs": [],
      "name": "deposit",
      "outputs": [],
      "stateMutability": "payable",
      "type": "function",
      "payable": true
    },
    {
      "inputs": [
        {
          "internalType": "uint256",
          "name": "amount",
          "type": "uint256"
        },
        {
          "internalType": "address payable",
          "name": "recipient",
          "type": "address"
        }
      ],
      "name": "withdraw",
      "outputs": [],
      "stateMutability": "nonpayable",
      "type": "function"
    }
  ],
  "bytecode": "0x608060405234801561001057600080fd5b50336000806101000a81548173ffffffffffffffffffffffffffffffffffffffff021916908373ffffffffffffffffffffffffffffffffffffffff160217905550610511806100606000396000f3fe6080604052600436106100285760003560e01c8062f714ce1461002d578063d0e30db014610056575b600080fd5b34801561003957600080fd5b50610054600480360381019061004f9190610287565b610060565b005b61005e6101ca565b005b60008054906101000a900473ffffffffffffffffffffffffffffffffffffffff1673ffffffffffffffffffffffffffffffffffffffff163373ffffffffffffffffffffffffffffffffffffffff16146100ee576040517f08c379a00000000000000000000000000000000000000000000000000000000081526004016100e59061033f565b60405180910390fd5b81471015610131576040517f08c379a00000000000000000000000000000000000000000000000000000000081526004016101289061035f565b60405180910390fd5b8073ffffffffffffffffffffffffffffffffffffffff167fef232fa02b2633bddc860db9d0d9b1c57fd83b506398b134edaebb6783d41e9483604051610177919061039f565b60405180910390a28073ffffffffffffffffffffffffffffffffffffffff166108fc839081150290604051600060405180830381858888f193505050501580156101c5573d6000803e3d6000fd5b505050565b6000341161020d576040517f08c379a00000000000000000000000000000000000000000000000000000000081526004016102049061037f565b60405180910390fd5b3373ffffffffffffffffffffffffffffffffffffffff167fe89ad522dd11083142290ca875da39a094bbae4f867e639b44b630d3106c44d334604051610253919061039f565b60405180910390a2565b60008135905061026c816104ad565b92915050565b600081359050610281816104c4565b92915050565b6000806040838503121561029e5761029d610407565b5b60006102ac85828601610272565b92505060206102bd8582860161025d565b9150509250929050565b60006102d4602b836103ba565b91506102df8261040c565b604082019050919050565b60006102f76011836103ba565b91506103028261045b565b602082019050919050565b600061031a600e836103ba565b915061032582610484565b602082019050919050565b610339816103fd565b82525050565b60006020820190508181036000830152610358816102c7565b9050919050565b60006020820190508181036000830152610378816102ea565b9050919050565b600060208201905081810360008301526103988161030d565b9050919050565b60006020820190506103b46000830184610330565b92915050565b600082825260208201905092915050565b60006103d6826103dd565b9050919050565b600073ffffffffffffffffffffffffffffffffffffffff82169050919050565b6000819050919050565b600080fd5b7f4f6e6c7920746865206f776e6572206f6620746869732077616c6c657420636160008201527f6e2077697468647261772e000000000000000000000000000000000000000000602082015250565b7f4e6f7420656e6f7567682066756e64732e000000000000000000000000000000600082015250565b7f4d7573742073656e64204554482e000000000000000000000000000000000000600082015250565b6104b6816103cb565b81146104c157600080fd5b50565b6104cd816103fd565b81146104d857600080fd5b5056fea26469706673582212208b8d40cd60790a9988040162d7d13178fc46772939190b0e89b36dc7cee3634e64736f6c63430008070033",
  "immutableReferences": {},
  "source": "// SPDX-License-Identifier: MIT\npragma solidity ^0.8.2;\n\n// This example was taken from the code examples on:\n// https://ethereum.org/en/\n\n/**\nNOTE: THIS WILL NOT BE AUTOMATICALLY COMPILED.\nIf you want it to compile, either import it into contract.sol or copy and paste the contract directly into there!\n**/\n\ncontract SimpleWallet {\n    // An 'address' is comparable to an email address - it's used to identify an account on Ethereum.\n    address payable private owner;\n\n    // Events allow for logging of activity on the blockchain.\n    // Software applications can listen for events in order to react to contract state changes.\n    event LogDeposit(uint amount, address indexed sender);\n    event LogWithdrawal(uint amount, address indexed recipient);\n\n  // When this contract is deployed, set the deploying address as the owner of the contract.\n    constructor() {\n        owner = payable(msg.sender);\n    }\n\n    // Send ETH from the function caller to the SimpleWallet contract\n    function deposit() public payable {\n        require(msg.value > 0, \"Must send ETH.\");\n        emit LogDeposit(msg.value, msg.sender);\n    }\n\n    // Send ETH from the SimpleWallet contract to a chosen recipient\n    function withdraw(uint amount, address payable recipient) public {\n        require(msg.sender == owner, \"Only the owner of this wallet can withdraw.\");\n        require(address(this).balance >= amount, \"Not enough funds.\");\n        emit LogWithdrawal(amount, recipient);\n        recipient.transfer(amount);\n    }\n}\n",
  "sourcePath": "/Users/joenyzio/Documents/GitHub/joenyzio/celo-truffle/contracts/SimpleWallet.sol",
  "compiler": {
    "name": "solc",
    "version": "0.8.7+commit.e28d00a7.Emscripten.clang"
  },
  "schemaVersion": "3.4.5",
  "updatedAt": "2022-06-13T02:00:20.950Z",
  "networkType": "ethereum",
  "devdoc": {
    "kind": "dev",
    "methods": {},
    "version": 1
  },
  "userdoc": {
    "kind": "user",
    "methods": {},
    "notice": "NOTE: THIS WILL NOT BE AUTOMATICALLY COMPILED. If you want it to compile, either import it into contract.sol or copy and paste the contract directly into there!*",
    "version": 1
  }
}