{
  "contractName": "SimpleNFT",
  "abi": [
    {
      "inputs": [],
      "stateMutability": "nonpayable",
      "type": "constructor"
    },
    {
      "anonymous": false,
      "inputs": [
        {
          "indexed": true,
          "internalType": "address",
          "name": "owner",
          "type": "address"
        },
        {
          "indexed": true,
          "internalType": "address",
          "name": "approved",
          "type": "address"
        },
        {
          "indexed": true,
          "internalType": "uint256",
          "name": "tokenId",
          "type": "uint256"
        }
      ],
      "name": "Approval",
      "type": "event"
    },
    {
      "anonymous": false,
      "inputs": [
        {
          "indexed": true,
          "internalType": "address",
          "name": "owner",
          "type": "address"
        },
        {
          "indexed": true,
          "internalType": "address",
          "name": "operator",
          "type": "address"
        },
        {
          "indexed": false,
          "internalType": "bool",
          "name": "approved",
          "type": "bool"
        }
      ],
      "name": "ApprovalForAll",
      "type": "event"
    },
    {
      "anonymous": false,
      "inputs": [
        {
          "indexed": true,
          "internalType": "address",
          "name": "previousOwner",
          "type": "address"
        },
        {
          "indexed": true,
          "internalType": "address",
          "name": "newOwner",
          "type": "address"
        }
      ],
      "name": "OwnershipTransferred",
      "type": "event"
    },
    {
      "anonymous": false,
      "inputs": [
        {
          "indexed": true,
          "internalType": "address",
          "name": "from",
          "type": "address"
        },
        {
          "indexed": true,
          "internalType": "address",
          "name": "to",
          "type": "address"
        },
        {
          "indexed": true,
          "internalType": "uint256",
          "name": "tokenId",
          "type": "uint256"
        }
      ],
      "name": "Transfer",
      "type": "event"
    },
    {
      "inputs": [
        {
          "internalType": "address",
          "name": "to",
          "type": "address"
        },
        {
          "internalType": "uint256",
          "name": "tokenId",
          "type": "uint256"
        }
      ],
      "name": "approve",
      "outputs": [],
      "stateMutability": "nonpayable",
      "type": "function"
    },
    {
      "inputs": [
        {
          "internalType": "address",
          "name": "owner",
          "type": "address"
        }
      ],
      "name": "balanceOf",
      "outputs": [
        {
          "internalType": "uint256",
          "name": "",
          "type": "uint256"
        }
      ],
      "stateMutability": "view",
      "type": "function",
      "constant": true
    },
    {
      "inputs": [
        {
          "internalType": "uint256",
          "name": "tokenId",
          "type": "uint256"
        }
      ],
      "name": "getApproved",
      "outputs": [
        {
          "internalType": "address",
          "name": "",
          "type": "address"
        }
      ],
      "stateMutability": "view",
      "type": "function",
      "constant": true
    },
    {
      "inputs": [
        {
          "internalType": "address",
          "name": "owner",
          "type": "address"
        },
        {
          "internalType": "address",
          "name": "operator",
          "type": "address"
        }
      ],
      "name": "isApprovedForAll",
      "outputs": [
        {
          "internalType": "bool",
          "name": "",
          "type": "bool"
        }
      ],
      "stateMutability": "view",
      "type": "function",
      "constant": true
    },
    {
      "inputs": [],
      "name": "name",
      "outputs": [
        {
          "internalType": "string",
          "name": "",
          "type": "string"
        }
      ],
      "stateMutability": "view",
      "type": "function",
      "constant": true
    },
    {
      "inputs": [],
      "name": "owner",
      "outputs": [
        {
          "internalType": "address",
          "name": "",
          "type": "address"
        }
      ],
      "stateMutability": "view",
      "type": "function",
      "constant": true
    },
    {
      "inputs": [
        {
          "internalType": "uint256",
          "name": "tokenId",
          "type": "uint256"
        }
      ],
      "name": "ownerOf",
      "outputs": [
        {
          "internalType": "address",
          "name": "",
          "type": "address"
        }
      ],
      "stateMutability": "view",
      "type": "function",
      "constant": true
    },
    {
      "inputs": [],
      "name": "renounceOwnership",
      "outputs": [],
      "stateMutability": "nonpayable",
      "type": "function"
    },
    {
      "inputs": [
        {
          "internalType": "address",
          "name": "from",
          "type": "address"
        },
        {
          "internalType": "address",
          "name": "to",
          "type": "address"
        },
        {
          "internalType": "uint256",
          "name": "tokenId",
          "type": "uint256"
        }
      ],
      "name": "safeTransferFrom",
      "outputs": [],
      "stateMutability": "nonpayable",
      "type": "function"
    },
    {
      "inputs": [
        {
          "internalType": "address",
          "name": "from",
          "type": "address"
        },
        {
          "internalType": "address",
          "name": "to",
          "type": "address"
        },
        {
          "internalType": "uint256",
          "name": "tokenId",
          "type": "uint256"
        },
        {
          "internalType": "bytes",
          "name": "_data",
          "type": "bytes"
        }
      ],
      "name": "safeTransferFrom",
      "outputs": [],
      "stateMutability": "nonpayable",
      "type": "function"
    },
    {
      "inputs": [
        {
          "internalType": "address",
          "name": "operator",
          "type": "address"
        },
        {
          "internalType": "bool",
          "name": "approved",
          "type": "bool"
        }
      ],
      "name": "setApprovalForAll",
      "outputs": [],
      "stateMutability": "nonpayable",
      "type": "function"
    },
    {
      "inputs": [
        {
          "internalType": "bytes4",
          "name": "interfaceId",
          "type": "bytes4"
        }
      ],
      "name": "supportsInterface",
      "outputs": [
        {
          "internalType": "bool",
          "name": "",
          "type": "bool"
        }
      ],
      "stateMutability": "view",
      "type": "function",
      "constant": true
    },
    {
      "inputs": [],
      "name": "symbol",
      "outputs": [
        {
          "internalType": "string",
          "name": "",
          "type": "string"
        }
      ],
      "stateMutability": "view",
      "type": "function",
      "constant": true
    },
    {
      "inputs": [],
      "name": "tokenCounter",
      "outputs": [
        {
          "internalType": "uint256",
          "name": "",
          "type": "uint256"
        }
      ],
      "stateMutability": "view",
      "type": "function",
      "constant": true
    },
    {
      "inputs": [
        {
          "internalType": "uint256",
          "name": "tokenId",
          "type": "uint256"
        }
      ],
      "name": "tokenURI",
      "outputs": [
        {
          "internalType": "string",
          "name": "",
          "type": "string"
        }
      ],
      "stateMutability": "view",
      "type": "function",
      "constant": true
    },
    {
      "inputs": [
        {
          "internalType": "address",
          "name": "from",
          "type": "address"
        },
        {
          "internalType": "address",
          "name": "to",
          "type": "address"
        },
        {
          "internalType": "uint256",
          "name": "tokenId",
          "type": "uint256"
        }
      ],
      "name": "transferFrom",
      "outputs": [],
      "stateMutability": "nonpayable",
      "type": "function"
    },
    {
      "inputs": [
        {
          "internalType": "address",
          "name": "newOwner",
          "type": "address"
        }
      ],
      "name": "transferOwnership",
      "outputs": [],
      "stateMutability": "nonpayable",
      "type": "function"
    },
    {
      "inputs": [
        {
          "internalType": "address",
          "name": "recipient",
          "type": "address"
        },
        {
          "internalType": "string",
          "name": "tokenURI",
          "type": "string"
        }
      ],
      "name": "mint",
      "outputs": [
        {
          "internalType": "uint256",
          "name": "",
          "type": "uint256"
        }
      ],
      "stateMutability": "nonpayable",
      "type": "function"
    }
  ],
  "bytecode": "0x608060405260006008553480156200001657600080fd5b506040518060400160405280600881526020017f4e4654204e616d650000000000000000000000000000000000000000000000008152506040518060400160405280600681526020017f53594d424f4c000000000000000000000000000000000000000000000000000081525081600090805190602001906200009b929190620001ab565b508060019080519060200190620000b4929190620001ab565b505050620000d7620000cb620000dd60201b60201c565b620000e560201b60201c565b620002c0565b600033905090565b6000600760009054906101000a900473ffffffffffffffffffffffffffffffffffffffff16905081600760006101000a81548173ffffffffffffffffffffffffffffffffffffffff021916908373ffffffffffffffffffffffffffffffffffffffff1602179055508173ffffffffffffffffffffffffffffffffffffffff168173ffffffffffffffffffffffffffffffffffffffff167f8be0079c531659141344cd1fd0a4f28419497f9722a3daafe3b4186f6b6457e060405160405180910390a35050565b828054620001b9906200025b565b90600052602060002090601f016020900481019282620001dd576000855562000229565b82601f10620001f857805160ff191683800117855562000229565b8280016001018555821562000229579182015b82811115620002285782518255916020019190600101906200020b565b5b5090506200023891906200023c565b5090565b5b80821115620002575760008160009055506001016200023d565b5090565b600060028204905060018216806200027457607f821691505b602082108114156200028b576200028a62000291565b5b50919050565b7f4e487b7100000000000000000000000000000000000000000000000000000000600052602260045260246000fd5b612fb180620002d06000396000f3fe608060405234801561001057600080fd5b50600436106101165760003560e01c80638da5cb5b116100a2578063c87b56dd11610071578063c87b56dd146102cb578063d082e381146102fb578063d0def52114610319578063e985e9c514610349578063f2fde38b1461037957610116565b80638da5cb5b1461025757806395d89b4114610275578063a22cb46514610293578063b88d4fde146102af57610116565b806323b872dd116100e957806323b872dd146101b557806342842e0e146101d15780636352211e146101ed57806370a082311461021d578063715018a61461024d57610116565b806301ffc9a71461011b57806306fdde031461014b578063081812fc14610169578063095ea7b314610199575b600080fd5b61013560048036038101906101309190611f11565b610395565b6040516101429190612369565b60405180910390f35b610153610477565b6040516101609190612384565b60405180910390f35b610183600480360381019061017e9190611f6b565b610509565b6040516101909190612302565b60405180910390f35b6101b360048036038101906101ae9190611ed1565b61058e565b005b6101cf60048036038101906101ca9190611d5f565b6106a6565b005b6101eb60048036038101906101e69190611d5f565b610706565b005b61020760048036038101906102029190611f6b565b610726565b6040516102149190612302565b60405180910390f35b61023760048036038101906102329190611cf2565b6107d8565b60405161024491906125e6565b60405180910390f35b610255610890565b005b61025f610918565b60405161026c9190612302565b60405180910390f35b61027d610942565b60405161028a9190612384565b60405180910390f35b6102ad60048036038101906102a89190611e35565b6109d4565b005b6102c960048036038101906102c49190611db2565b6109ea565b005b6102e560048036038101906102e09190611f6b565b610a4c565b6040516102f29190612384565b60405180910390f35b610303610b9e565b60405161031091906125e6565b60405180910390f35b610333600480360381019061032e9190611e75565b610ba4565b60405161034091906125e6565b60405180910390f35b610363600480360381019061035e9190611d1f565b610bde565b6040516103709190612369565b60405180910390f35b610393600480360381019061038e9190611cf2565b610c72565b005b60007f80ac58cd000000000000000000000000000000000000000000000000000000007bffffffffffffffffffffffffffffffffffffffffffffffffffffffff1916827bffffffffffffffffffffffffffffffffffffffffffffffffffffffff1916148061046057507f5b5e139f000000000000000000000000000000000000000000000000000000007bffffffffffffffffffffffffffffffffffffffffffffffffffffffff1916827bffffffffffffffffffffffffffffffffffffffffffffffffffffffff1916145b80610470575061046f82610d6a565b5b9050919050565b6060600080546104869061283c565b80601f01602080910402602001604051908101604052809291908181526020018280546104b29061283c565b80156104ff5780601f106104d4576101008083540402835291602001916104ff565b820191906000526020600020905b8154815290600101906020018083116104e257829003601f168201915b5050505050905090565b600061051482610dd4565b610553576040517f08c379a000000000000000000000000000000000000000000000000000000000815260040161054a90612546565b60405180910390fd5b6004600083815260200190815260200160002060009054906101000a900473ffffffffffffffffffffffffffffffffffffffff169050919050565b600061059982610726565b90508073ffffffffffffffffffffffffffffffffffffffff168373ffffffffffffffffffffffffffffffffffffffff16141561060a576040517f08c379a0000000000000000000000000000000000000000000000000000000008152600401610601906125a6565b60405180910390fd5b8073ffffffffffffffffffffffffffffffffffffffff16610629610e40565b73ffffffffffffffffffffffffffffffffffffffff161480610658575061065781610652610e40565b610bde565b5b610697576040517f08c379a000000000000000000000000000000000000000000000000000000000815260040161068e90612486565b60405180910390fd5b6106a18383610e48565b505050565b6106b76106b1610e40565b82610f01565b6106f6576040517f08c379a00000000000000000000000000000000000000000000000000000000081526004016106ed906125c6565b60405180910390fd5b610701838383610fdf565b505050565b610721838383604051806020016040528060008152506109ea565b505050565b6000806002600084815260200190815260200160002060009054906101000a900473ffffffffffffffffffffffffffffffffffffffff169050600073ffffffffffffffffffffffffffffffffffffffff168173ffffffffffffffffffffffffffffffffffffffff1614156107cf576040517f08c379a00000000000000000000000000000000000000000000000000000000081526004016107c6906124c6565b60405180910390fd5b80915050919050565b60008073ffffffffffffffffffffffffffffffffffffffff168273ffffffffffffffffffffffffffffffffffffffff161415610849576040517f08c379a0000000000000000000000000000000000000000000000000000000008152600401610840906124a6565b60405180910390fd5b600360008373ffffffffffffffffffffffffffffffffffffffff1673ffffffffffffffffffffffffffffffffffffffff168152602001908152602001600020549050919050565b610898610e40565b73ffffffffffffffffffffffffffffffffffffffff166108b6610918565b73ffffffffffffffffffffffffffffffffffffffff161461090c576040517f08c379a000000000000000000000000000000000000000000000000000000000815260040161090390612566565b60405180910390fd5b6109166000611246565b565b6000600760009054906101000a900473ffffffffffffffffffffffffffffffffffffffff16905090565b6060600180546109519061283c565b80601f016020809104026020016040519081016040528092919081815260200182805461097d9061283c565b80156109ca5780601f1061099f576101008083540402835291602001916109ca565b820191906000526020600020905b8154815290600101906020018083116109ad57829003601f168201915b5050505050905090565b6109e66109df610e40565b838361130c565b5050565b6109fb6109f5610e40565b83610f01565b610a3a576040517f08c379a0000000000000000000000000000000000000000000000000000000008152600401610a31906125c6565b60405180910390fd5b610a4684848484611479565b50505050565b6060610a5782610dd4565b610a96576040517f08c379a0000000000000000000000000000000000000000000000000000000008152600401610a8d90612526565b60405180910390fd5b6000600660008481526020019081526020016000208054610ab69061283c565b80601f0160208091040260200160405190810160405280929190818152602001828054610ae29061283c565b8015610b2f5780601f10610b0457610100808354040283529160200191610b2f565b820191906000526020600020905b815481529060010190602001808311610b1257829003601f168201915b505050505090506000610b406114d5565b9050600081511415610b56578192505050610b99565b600082511115610b8b578082604051602001610b739291906122de565b60405160208183030381529060405292505050610b99565b610b94846114ec565b925050505b919050565b60085481565b6000610bb283600854611593565b610bbe6008548361176d565b6001600854610bcd91906126cb565b600881905550600854905092915050565b6000600560008473ffffffffffffffffffffffffffffffffffffffff1673ffffffffffffffffffffffffffffffffffffffff16815260200190815260200160002060008373ffffffffffffffffffffffffffffffffffffffff1673ffffffffffffffffffffffffffffffffffffffff16815260200190815260200160002060009054906101000a900460ff16905092915050565b610c7a610e40565b73ffffffffffffffffffffffffffffffffffffffff16610c98610918565b73ffffffffffffffffffffffffffffffffffffffff1614610cee576040517f08c379a0000000000000000000000000000000000000000000000000000000008152600401610ce590612566565b60405180910390fd5b600073ffffffffffffffffffffffffffffffffffffffff168173ffffffffffffffffffffffffffffffffffffffff161415610d5e576040517f08c379a0000000000000000000000000000000000000000000000000000000008152600401610d55906123c6565b60405180910390fd5b610d6781611246565b50565b60007f01ffc9a7000000000000000000000000000000000000000000000000000000007bffffffffffffffffffffffffffffffffffffffffffffffffffffffff1916827bffffffffffffffffffffffffffffffffffffffffffffffffffffffff1916149050919050565b60008073ffffffffffffffffffffffffffffffffffffffff166002600084815260200190815260200160002060009054906101000a900473ffffffffffffffffffffffffffffffffffffffff1673ffffffffffffffffffffffffffffffffffffffff1614159050919050565b600033905090565b816004600083815260200190815260200160002060006101000a81548173ffffffffffffffffffffffffffffffffffffffff021916908373ffffffffffffffffffffffffffffffffffffffff160217905550808273ffffffffffffffffffffffffffffffffffffffff16610ebb83610726565b73ffffffffffffffffffffffffffffffffffffffff167f8c5be1e5ebec7d5bd14f71427d1e84f3dd0314c0f7b2291e5b200ac8c7c3b92560405160405180910390a45050565b6000610f0c82610dd4565b610f4b576040517f08c379a0000000000000000000000000000000000000000000000000000000008152600401610f4290612466565b60405180910390fd5b6000610f5683610726565b90508073ffffffffffffffffffffffffffffffffffffffff168473ffffffffffffffffffffffffffffffffffffffff161480610f985750610f978185610bde565b5b80610fd657508373ffffffffffffffffffffffffffffffffffffffff16610fbe84610509565b73ffffffffffffffffffffffffffffffffffffffff16145b91505092915050565b8273ffffffffffffffffffffffffffffffffffffffff16610fff82610726565b73ffffffffffffffffffffffffffffffffffffffff1614611055576040517f08c379a000000000000000000000000000000000000000000000000000000000815260040161104c906123e6565b60405180910390fd5b600073ffffffffffffffffffffffffffffffffffffffff168273ffffffffffffffffffffffffffffffffffffffff1614156110c5576040517f08c379a00000000000000000000000000000000000000000000000000000000081526004016110bc90612426565b60405180910390fd5b6110d08383836117e1565b6110db600082610e48565b6001600360008573ffffffffffffffffffffffffffffffffffffffff1673ffffffffffffffffffffffffffffffffffffffff168152602001908152602001600020600082825461112b9190612752565b925050819055506001600360008473ffffffffffffffffffffffffffffffffffffffff1673ffffffffffffffffffffffffffffffffffffffff168152602001908152602001600020600082825461118291906126cb565b92505081905550816002600083815260200190815260200160002060006101000a81548173ffffffffffffffffffffffffffffffffffffffff021916908373ffffffffffffffffffffffffffffffffffffffff160217905550808273ffffffffffffffffffffffffffffffffffffffff168473ffffffffffffffffffffffffffffffffffffffff167fddf252ad1be2c89b69c2b068fc378daa952ba7f163c4a11628f55a4df523b3ef60405160405180910390a46112418383836117e6565b505050565b6000600760009054906101000a900473ffffffffffffffffffffffffffffffffffffffff16905081600760006101000a81548173ffffffffffffffffffffffffffffffffffffffff021916908373ffffffffffffffffffffffffffffffffffffffff1602179055508173ffffffffffffffffffffffffffffffffffffffff168173ffffffffffffffffffffffffffffffffffffffff167f8be0079c531659141344cd1fd0a4f28419497f9722a3daafe3b4186f6b6457e060405160405180910390a35050565b8173ffffffffffffffffffffffffffffffffffffffff168373ffffffffffffffffffffffffffffffffffffffff16141561137b576040517f08c379a000000000000000000000000000000000000000000000000000000000815260040161137290612446565b60405180910390fd5b80600560008573ffffffffffffffffffffffffffffffffffffffff1673ffffffffffffffffffffffffffffffffffffffff16815260200190815260200160002060008473ffffffffffffffffffffffffffffffffffffffff1673ffffffffffffffffffffffffffffffffffffffff16815260200190815260200160002060006101000a81548160ff0219169083151502179055508173ffffffffffffffffffffffffffffffffffffffff168373ffffffffffffffffffffffffffffffffffffffff167f17307eab39ab6107e8899845ad3d59bd9653f200f220920489ca2b5937696c318360405161146c9190612369565b60405180910390a3505050565b611484848484610fdf565b611490848484846117eb565b6114cf576040517f08c379a00000000000000000000000000000000000000000000000000000000081526004016114c6906123a6565b60405180910390fd5b50505050565b606060405180602001604052806000815250905090565b60606114f782610dd4565b611536576040517f08c379a000000000000000000000000000000000000000000000000000000000815260040161152d90612586565b60405180910390fd5b60006115406114d5565b90506000815111611560576040518060200160405280600081525061158b565b8061156a84611982565b60405160200161157b9291906122de565b6040516020818303038152906040525b915050919050565b600073ffffffffffffffffffffffffffffffffffffffff168273ffffffffffffffffffffffffffffffffffffffff161415611603576040517f08c379a00000000000000000000000000000000000000000000000000000000081526004016115fa90612506565b60405180910390fd5b61160c81610dd4565b1561164c576040517f08c379a000000000000000000000000000000000000000000000000000000000815260040161164390612406565b60405180910390fd5b611658600083836117e1565b6001600360008473ffffffffffffffffffffffffffffffffffffffff1673ffffffffffffffffffffffffffffffffffffffff16815260200190815260200160002060008282546116a891906126cb565b92505081905550816002600083815260200190815260200160002060006101000a81548173ffffffffffffffffffffffffffffffffffffffff021916908373ffffffffffffffffffffffffffffffffffffffff160217905550808273ffffffffffffffffffffffffffffffffffffffff16600073ffffffffffffffffffffffffffffffffffffffff167fddf252ad1be2c89b69c2b068fc378daa952ba7f163c4a11628f55a4df523b3ef60405160405180910390a4611769600083836117e6565b5050565b61177682610dd4565b6117b5576040517f08c379a00000000000000000000000000000000000000000000000000000000081526004016117ac906124e6565b60405180910390fd5b806006600084815260200190815260200160002090805190602001906117dc929190611b06565b505050565b505050565b505050565b600061180c8473ffffffffffffffffffffffffffffffffffffffff16611ae3565b15611975578373ffffffffffffffffffffffffffffffffffffffff1663150b7a02611835610e40565b8786866040518563ffffffff1660e01b8152600401611857949392919061231d565b602060405180830381600087803b15801561187157600080fd5b505af19250505080156118a257506040513d601f19601f8201168201806040525081019061189f9190611f3e565b60015b611925573d80600081146118d2576040519150601f19603f3d011682016040523d82523d6000602084013e6118d7565b606091505b5060008151141561191d576040517f08c379a0000000000000000000000000000000000000000000000000000000008152600401611914906123a6565b60405180910390fd5b805181602001fd5b63150b7a0260e01b7bffffffffffffffffffffffffffffffffffffffffffffffffffffffff1916817bffffffffffffffffffffffffffffffffffffffffffffffffffffffff19161491505061197a565b600190505b949350505050565b606060008214156119ca576040518060400160405280600181526020017f30000000000000000000000000000000000000000000000000000000000000008152509050611ade565b600082905060005b600082146119fc5780806119e59061289f565b915050600a826119f59190612721565b91506119d2565b60008167ffffffffffffffff811115611a1857611a176129d5565b5b6040519080825280601f01601f191660200182016040528015611a4a5781602001600182028036833780820191505090505b5090505b60008514611ad757600182611a639190612752565b9150600a85611a7291906128e8565b6030611a7e91906126cb565b60f81b818381518110611a9457611a936129a6565b5b60200101907effffffffffffffffffffffffffffffffffffffffffffffffffffffffffffff1916908160001a905350600a85611ad09190612721565b9450611a4e565b8093505050505b919050565b6000808273ffffffffffffffffffffffffffffffffffffffff163b119050919050565b828054611b129061283c565b90600052602060002090601f016020900481019282611b345760008555611b7b565b82601f10611b4d57805160ff1916838001178555611b7b565b82800160010185558215611b7b579182015b82811115611b7a578251825591602001919060010190611b5f565b5b509050611b889190611b8c565b5090565b5b80821115611ba5576000816000905550600101611b8d565b5090565b6000611bbc611bb784612626565b612601565b905082815260208101848484011115611bd857611bd7612a09565b5b611be38482856127fa565b509392505050565b6000611bfe611bf984612657565b612601565b905082815260208101848484011115611c1a57611c19612a09565b5b611c258482856127fa565b509392505050565b600081359050611c3c81612f1f565b92915050565b600081359050611c5181612f36565b92915050565b600081359050611c6681612f4d565b92915050565b600081519050611c7b81612f4d565b92915050565b600082601f830112611c9657611c95612a04565b5b8135611ca6848260208601611ba9565b91505092915050565b600082601f830112611cc457611cc3612a04565b5b8135611cd4848260208601611beb565b91505092915050565b600081359050611cec81612f64565b92915050565b600060208284031215611d0857611d07612a13565b5b6000611d1684828501611c2d565b91505092915050565b60008060408385031215611d3657611d35612a13565b5b6000611d4485828601611c2d565b9250506020611d5585828601611c2d565b9150509250929050565b600080600060608486031215611d7857611d77612a13565b5b6000611d8686828701611c2d565b9350506020611d9786828701611c2d565b9250506040611da886828701611cdd565b9150509250925092565b60008060008060808587031215611dcc57611dcb612a13565b5b6000611dda87828801611c2d565b9450506020611deb87828801611c2d565b9350506040611dfc87828801611cdd565b925050606085013567ffffffffffffffff811115611e1d57611e1c612a0e565b5b611e2987828801611c81565b91505092959194509250565b60008060408385031215611e4c57611e4b612a13565b5b6000611e5a85828601611c2d565b9250506020611e6b85828601611c42565b9150509250929050565b60008060408385031215611e8c57611e8b612a13565b5b6000611e9a85828601611c2d565b925050602083013567ffffffffffffffff811115611ebb57611eba612a0e565b5b611ec785828601611caf565b9150509250929050565b60008060408385031215611ee857611ee7612a13565b5b6000611ef685828601611c2d565b9250506020611f0785828601611cdd565b9150509250929050565b600060208284031215611f2757611f26612a13565b5b6000611f3584828501611c57565b91505092915050565b600060208284031215611f5457611f53612a13565b5b6000611f6284828501611c6c565b91505092915050565b600060208284031215611f8157611f80612a13565b5b6000611f8f84828501611cdd565b91505092915050565b611fa181612786565b82525050565b611fb081612798565b82525050565b6000611fc182612688565b611fcb818561269e565b9350611fdb818560208601612809565b611fe481612a18565b840191505092915050565b6000611ffa82612693565b61200481856126af565b9350612014818560208601612809565b61201d81612a18565b840191505092915050565b600061203382612693565b61203d81856126c0565b935061204d818560208601612809565b80840191505092915050565b60006120666032836126af565b915061207182612a29565b604082019050919050565b60006120896026836126af565b915061209482612a78565b604082019050919050565b60006120ac6025836126af565b91506120b782612ac7565b604082019050919050565b60006120cf601c836126af565b91506120da82612b16565b602082019050919050565b60006120f26024836126af565b91506120fd82612b3f565b604082019050919050565b60006121156019836126af565b915061212082612b8e565b602082019050919050565b6000612138602c836126af565b915061214382612bb7565b604082019050919050565b600061215b6038836126af565b915061216682612c06565b604082019050919050565b600061217e602a836126af565b915061218982612c55565b604082019050919050565b60006121a16029836126af565b91506121ac82612ca4565b604082019050919050565b60006121c4602e836126af565b91506121cf82612cf3565b604082019050919050565b60006121e76020836126af565b91506121f282612d42565b602082019050919050565b600061220a6031836126af565b915061221582612d6b565b604082019050919050565b600061222d602c836126af565b915061223882612dba565b604082019050919050565b60006122506020836126af565b915061225b82612e09565b602082019050919050565b6000612273602f836126af565b915061227e82612e32565b604082019050919050565b60006122966021836126af565b91506122a182612e81565b604082019050919050565b60006122b96031836126af565b91506122c482612ed0565b604082019050919050565b6122d8816127f0565b82525050565b60006122ea8285612028565b91506122f68284612028565b91508190509392505050565b60006020820190506123176000830184611f98565b92915050565b60006080820190506123326000830187611f98565b61233f6020830186611f98565b61234c60408301856122cf565b818103606083015261235e8184611fb6565b905095945050505050565b600060208201905061237e6000830184611fa7565b92915050565b6000602082019050818103600083015261239e8184611fef565b905092915050565b600060208201905081810360008301526123bf81612059565b9050919050565b600060208201905081810360008301526123df8161207c565b9050919050565b600060208201905081810360008301526123ff8161209f565b9050919050565b6000602082019050818103600083015261241f816120c2565b9050919050565b6000602082019050818103600083015261243f816120e5565b9050919050565b6000602082019050818103600083015261245f81612108565b9050919050565b6000602082019050818103600083015261247f8161212b565b9050919050565b6000602082019050818103600083015261249f8161214e565b9050919050565b600060208201905081810360008301526124bf81612171565b9050919050565b600060208201905081810360008301526124df81612194565b9050919050565b600060208201905081810360008301526124ff816121b7565b9050919050565b6000602082019050818103600083015261251f816121da565b9050919050565b6000602082019050818103600083015261253f816121fd565b9050919050565b6000602082019050818103600083015261255f81612220565b9050919050565b6000602082019050818103600083015261257f81612243565b9050919050565b6000602082019050818103600083015261259f81612266565b9050919050565b600060208201905081810360008301526125bf81612289565b9050919050565b600060208201905081810360008301526125df816122ac565b9050919050565b60006020820190506125fb60008301846122cf565b92915050565b600061260b61261c565b9050612617828261286e565b919050565b6000604051905090565b600067ffffffffffffffff821115612641576126406129d5565b5b61264a82612a18565b9050602081019050919050565b600067ffffffffffffffff821115612672576126716129d5565b5b61267b82612a18565b9050602081019050919050565b600081519050919050565b600081519050919050565b600082825260208201905092915050565b600082825260208201905092915050565b600081905092915050565b60006126d6826127f0565b91506126e1836127f0565b9250827fffffffffffffffffffffffffffffffffffffffffffffffffffffffffffffffff0382111561271657612715612919565b5b828201905092915050565b600061272c826127f0565b9150612737836127f0565b92508261274757612746612948565b5b828204905092915050565b600061275d826127f0565b9150612768836127f0565b92508282101561277b5761277a612919565b5b828203905092915050565b6000612791826127d0565b9050919050565b60008115159050919050565b60007fffffffff0000000000000000000000000000000000000000000000000000000082169050919050565b600073ffffffffffffffffffffffffffffffffffffffff82169050919050565b6000819050919050565b82818337600083830152505050565b60005b8381101561282757808201518184015260208101905061280c565b83811115612836576000848401525b50505050565b6000600282049050600182168061285457607f821691505b6020821081141561286857612867612977565b5b50919050565b61287782612a18565b810181811067ffffffffffffffff82111715612896576128956129d5565b5b80604052505050565b60006128aa826127f0565b91507fffffffffffffffffffffffffffffffffffffffffffffffffffffffffffffffff8214156128dd576128dc612919565b5b600182019050919050565b60006128f3826127f0565b91506128fe836127f0565b92508261290e5761290d612948565b5b828206905092915050565b7f4e487b7100000000000000000000000000000000000000000000000000000000600052601160045260246000fd5b7f4e487b7100000000000000000000000000000000000000000000000000000000600052601260045260246000fd5b7f4e487b7100000000000000000000000000000000000000000000000000000000600052602260045260246000fd5b7f4e487b7100000000000000000000000000000000000000000000000000000000600052603260045260246000fd5b7f4e487b7100000000000000000000000000000000000000000000000000000000600052604160045260246000fd5b600080fd5b600080fd5b600080fd5b600080fd5b6000601f19601f8301169050919050565b7f4552433732313a207472616e7366657220746f206e6f6e20455243373231526560008201527f63656976657220696d706c656d656e7465720000000000000000000000000000602082015250565b7f4f776e61626c653a206e6577206f776e657220697320746865207a65726f206160008201527f6464726573730000000000000000000000000000000000000000000000000000602082015250565b7f4552433732313a207472616e736665722066726f6d20696e636f72726563742060008201527f6f776e6572000000000000000000000000000000000000000000000000000000602082015250565b7f4552433732313a20746f6b656e20616c7265616479206d696e74656400000000600082015250565b7f4552433732313a207472616e7366657220746f20746865207a65726f2061646460008201527f7265737300000000000000000000000000000000000000000000000000000000602082015250565b7f4552433732313a20617070726f766520746f2063616c6c657200000000000000600082015250565b7f4552433732313a206f70657261746f7220717565727920666f72206e6f6e657860008201527f697374656e7420746f6b656e0000000000000000000000000000000000000000602082015250565b7f4552433732313a20617070726f76652063616c6c6572206973206e6f74206f7760008201527f6e6572206e6f7220617070726f76656420666f7220616c6c0000000000000000602082015250565b7f4552433732313a2062616c616e636520717565727920666f7220746865207a6560008201527f726f206164647265737300000000000000000000000000000000000000000000602082015250565b7f4552433732313a206f776e657220717565727920666f72206e6f6e657869737460008201527f656e7420746f6b656e0000000000000000000000000000000000000000000000602082015250565b7f45524337323155524953746f726167653a2055524920736574206f66206e6f6e60008201527f6578697374656e7420746f6b656e000000000000000000000000000000000000602082015250565b7f4552433732313a206d696e7420746f20746865207a65726f2061646472657373600082015250565b7f45524337323155524953746f726167653a2055524920717565727920666f722060008201527f6e6f6e6578697374656e7420746f6b656e000000000000000000000000000000602082015250565b7f4552433732313a20617070726f76656420717565727920666f72206e6f6e657860008201527f697374656e7420746f6b656e0000000000000000000000000000000000000000602082015250565b7f4f776e61626c653a2063616c6c6572206973206e6f7420746865206f776e6572600082015250565b7f4552433732314d657461646174613a2055524920717565727920666f72206e6f60008201527f6e6578697374656e7420746f6b656e0000000000000000000000000000000000602082015250565b7f4552433732313a20617070726f76616c20746f2063757272656e74206f776e6560008201527f7200000000000000000000000000000000000000000000000000000000000000602082015250565b7f4552433732313a207472616e736665722063616c6c6572206973206e6f74206f60008201527f776e6572206e6f7220617070726f766564000000000000000000000000000000602082015250565b612f2881612786565b8114612f3357600080fd5b50565b612f3f81612798565b8114612f4a57600080fd5b50565b612f56816127a4565b8114612f6157600080fd5b50565b612f6d816127f0565b8114612f7857600080fd5b5056fea2646970667358221220742ba9f68e882fcfdbe208d6a4c39ec47fc2702db0f6e5e17e8ab4d9e1f89e9e64736f6c63430008070033",
  "immutableReferences": {},
  "source": "// // SPDX-License-Identifier: MIT\npragma solidity ^0.8.2;\n\nimport \"@openzeppelin/contracts/access/Ownable.sol\";\nimport \"@openzeppelin/contracts/token/ERC721/extensions/ERC721URIStorage.sol\";\n\n// To read more about NFTs, checkout the ERC721 standard:\n// https://eips.ethereum.org/EIPS/eip-721 \n\n/**\nNOTE: THIS WILL NOT BE AUTOMATICALLY COMPILED.\nIf you want it to compile, either import it into contract.sol or copy and paste the contract directly into there!\n**/\n\ncontract SimpleNFT is ERC721URIStorage, Ownable {\n\t\tuint256 public tokenCounter = 0;\n\n\t\t// You can pass in your own NFT name and symbol (like a stock ticker) here!\n    constructor() ERC721(\"NFT Name\", \"SYMBOL\") {\n\t\t\t// Put any initialization code inside of the constructor\n    }\n\n\t\t// minting is essentially creating the NFT.\n\t\t// you pass in who will own it and the link to the token's URI - which is usually a link to an image hosted on IPFS.\n    function mint(address recipient, string memory tokenURI) public returns (uint256) {\n\t\t\t\t// _mint is a built in function that actually puts your NFT onto the blockchain\n        _mint(recipient, tokenCounter);\n\n\t\t\t\t// this will set the tokenURI of the NFT to the tokenURI that you pass in through this function.\n        _setTokenURI(tokenCounter, tokenURI);\n\n\t\t\t\t// every time you mint, increment the amount of tokens you've created by 1.\n        tokenCounter = tokenCounter + 1;\n\t\t\t\t// we return the current token count, which is being used as the ID of the NFT.\n        return tokenCounter;\n    }\n}",
  "sourcePath": "/Users/joenyzio/Documents/GitHub/joenyzio/celo-truffle/contracts/SimpleNFT.sol",
  "compiler": {
    "name": "solc",
    "version": "0.8.7+commit.e28d00a7.Emscripten.clang"
  },
  "schemaVersion": "3.4.5",
  "updatedAt": "2022-06-13T01:50:50.915Z",
  "networkType": "ethereum",
  "devdoc": {
    "kind": "dev",
    "methods": {
      "approve(address,uint256)": {
        "details": "See {IERC721-approve}."
      },
      "balanceOf(address)": {
        "details": "See {IERC721-balanceOf}."
      },
      "getApproved(uint256)": {
        "details": "See {IERC721-getApproved}."
      },
      "isApprovedForAll(address,address)": {
        "details": "See {IERC721-isApprovedForAll}."
      },
      "name()": {
        "details": "See {IERC721Metadata-name}."
      },
      "owner()": {
        "details": "Returns the address of the current owner."
      },
      "ownerOf(uint256)": {
        "details": "See {IERC721-ownerOf}."
      },
      "renounceOwnership()": {
        "details": "Leaves the contract without owner. It will not be possible to call `onlyOwner` functions anymore. Can only be called by the current owner. NOTE: Renouncing ownership will leave the contract without an owner, thereby removing any functionality that is only available to the owner."
      },
      "safeTransferFrom(address,address,uint256)": {
        "details": "See {IERC721-safeTransferFrom}."
      },
      "safeTransferFrom(address,address,uint256,bytes)": {
        "details": "See {IERC721-safeTransferFrom}."
      },
      "setApprovalForAll(address,bool)": {
        "details": "See {IERC721-setApprovalForAll}."
      },
      "supportsInterface(bytes4)": {
        "details": "See {IERC165-supportsInterface}."
      },
      "symbol()": {
        "details": "See {IERC721Metadata-symbol}."
      },
      "tokenURI(uint256)": {
        "details": "See {IERC721Metadata-tokenURI}."
      },
      "transferFrom(address,address,uint256)": {
        "details": "See {IERC721-transferFrom}."
      },
      "transferOwnership(address)": {
        "details": "Transfers ownership of the contract to a new account (`newOwner`). Can only be called by the current owner."
      }
    },
    "version": 1
  },
  "userdoc": {
    "kind": "user",
    "methods": {},
    "notice": "NOTE: THIS WILL NOT BE AUTOMATICALLY COMPILED. If you want it to compile, either import it into contract.sol or copy and paste the contract directly into there!*",
    "version": 1
  }
}